{
  "contractName": "GolBall",
  "abi": [
    {
      "inputs": [
        {
          "internalType": "string",
          "name": "_name",
          "type": "string"
        },
        {
          "internalType": "string",
          "name": "_symbol",
          "type": "string"
        }
      ],
      "stateMutability": "nonpayable",
      "type": "constructor"
    },
    {
      "anonymous": false,
      "inputs": [
        {
          "indexed": true,
          "internalType": "address",
          "name": "owner",
          "type": "address"
        },
        {
          "indexed": true,
          "internalType": "address",
          "name": "approved",
          "type": "address"
        },
        {
          "indexed": true,
          "internalType": "uint256",
          "name": "tokenId",
          "type": "uint256"
        }
      ],
      "name": "Approval",
      "type": "event"
    },
    {
      "anonymous": false,
      "inputs": [
        {
          "indexed": true,
          "internalType": "address",
          "name": "owner",
          "type": "address"
        },
        {
          "indexed": true,
          "internalType": "address",
          "name": "operator",
          "type": "address"
        },
        {
          "indexed": false,
          "internalType": "bool",
          "name": "approved",
          "type": "bool"
        }
      ],
      "name": "ApprovalForAll",
      "type": "event"
    },
    {
      "anonymous": false,
      "inputs": [
        {
          "indexed": true,
          "internalType": "address",
          "name": "owner",
          "type": "address"
        },
        {
          "indexed": true,
          "internalType": "uint256",
          "name": "tokenId",
          "type": "uint256"
        }
      ],
      "name": "NewPlayer",
      "type": "event"
    },
    {
      "anonymous": false,
      "inputs": [
        {
          "indexed": true,
          "internalType": "address",
          "name": "from",
          "type": "address"
        },
        {
          "indexed": true,
          "internalType": "address",
          "name": "to",
          "type": "address"
        },
        {
          "indexed": true,
          "internalType": "uint256",
          "name": "tokenId",
          "type": "uint256"
        }
      ],
      "name": "Transfer",
      "type": "event"
    },
    {
      "inputs": [
        {
          "internalType": "address",
          "name": "to",
          "type": "address"
        },
        {
          "internalType": "uint256",
          "name": "tokenId",
          "type": "uint256"
        }
      ],
      "name": "approve",
      "outputs": [],
      "stateMutability": "nonpayable",
      "type": "function"
    },
    {
      "inputs": [
        {
          "internalType": "address",
          "name": "owner",
          "type": "address"
        }
      ],
      "name": "balanceOf",
      "outputs": [
        {
          "internalType": "uint256",
          "name": "",
          "type": "uint256"
        }
      ],
      "stateMutability": "view",
      "type": "function",
      "constant": true
    },
    {
      "inputs": [
        {
          "internalType": "uint256",
          "name": "tokenId",
          "type": "uint256"
        }
      ],
      "name": "getApproved",
      "outputs": [
        {
          "internalType": "address",
          "name": "",
          "type": "address"
        }
      ],
      "stateMutability": "view",
      "type": "function",
      "constant": true
    },
    {
      "inputs": [
        {
          "internalType": "address",
          "name": "owner",
          "type": "address"
        },
        {
          "internalType": "address",
          "name": "operator",
          "type": "address"
        }
      ],
      "name": "isApprovedForAll",
      "outputs": [
        {
          "internalType": "bool",
          "name": "",
          "type": "bool"
        }
      ],
      "stateMutability": "view",
      "type": "function",
      "constant": true
    },
    {
      "inputs": [],
      "name": "name",
      "outputs": [
        {
          "internalType": "string",
          "name": "",
          "type": "string"
        }
      ],
      "stateMutability": "view",
      "type": "function",
      "constant": true
    },
    {
      "inputs": [
        {
          "internalType": "uint256",
          "name": "tokenId",
          "type": "uint256"
        }
      ],
      "name": "ownerOf",
      "outputs": [
        {
          "internalType": "address",
          "name": "",
          "type": "address"
        }
      ],
      "stateMutability": "view",
      "type": "function",
      "constant": true
    },
    {
      "inputs": [
        {
          "internalType": "uint256",
          "name": "",
          "type": "uint256"
        }
      ],
      "name": "players",
      "outputs": [
        {
          "internalType": "uint256",
          "name": "id",
          "type": "uint256"
        },
        {
          "internalType": "address",
          "name": "owner",
          "type": "address"
        }
      ],
      "stateMutability": "view",
      "type": "function",
      "constant": true
    },
    {
      "inputs": [
        {
          "internalType": "address",
          "name": "from",
          "type": "address"
        },
        {
          "internalType": "address",
          "name": "to",
          "type": "address"
        },
        {
          "internalType": "uint256",
          "name": "tokenId",
          "type": "uint256"
        }
      ],
      "name": "safeTransferFrom",
      "outputs": [],
      "stateMutability": "nonpayable",
      "type": "function"
    },
    {
      "inputs": [
        {
          "internalType": "address",
          "name": "from",
          "type": "address"
        },
        {
          "internalType": "address",
          "name": "to",
          "type": "address"
        },
        {
          "internalType": "uint256",
          "name": "tokenId",
          "type": "uint256"
        },
        {
          "internalType": "bytes",
          "name": "data",
          "type": "bytes"
        }
      ],
      "name": "safeTransferFrom",
      "outputs": [],
      "stateMutability": "nonpayable",
      "type": "function"
    },
    {
      "inputs": [
        {
          "internalType": "address",
          "name": "operator",
          "type": "address"
        },
        {
          "internalType": "bool",
          "name": "approved",
          "type": "bool"
        }
      ],
      "name": "setApprovalForAll",
      "outputs": [],
      "stateMutability": "nonpayable",
      "type": "function"
    },
    {
      "inputs": [
        {
          "internalType": "bytes4",
          "name": "interfaceId",
          "type": "bytes4"
        }
      ],
      "name": "supportsInterface",
      "outputs": [
        {
          "internalType": "bool",
          "name": "",
          "type": "bool"
        }
      ],
      "stateMutability": "view",
      "type": "function",
      "constant": true
    },
    {
      "inputs": [],
      "name": "symbol",
      "outputs": [
        {
          "internalType": "string",
          "name": "",
          "type": "string"
        }
      ],
      "stateMutability": "view",
      "type": "function",
      "constant": true
    },
    {
      "inputs": [
        {
          "internalType": "uint256",
          "name": "tokenId",
          "type": "uint256"
        }
      ],
      "name": "tokenURI",
      "outputs": [
        {
          "internalType": "string",
          "name": "",
          "type": "string"
        }
      ],
      "stateMutability": "view",
      "type": "function",
      "constant": true
    },
    {
      "inputs": [
        {
          "internalType": "address",
          "name": "from",
          "type": "address"
        },
        {
          "internalType": "address",
          "name": "to",
          "type": "address"
        },
        {
          "internalType": "uint256",
          "name": "tokenId",
          "type": "uint256"
        }
      ],
      "name": "transferFrom",
      "outputs": [],
      "stateMutability": "nonpayable",
      "type": "function"
    },
    {
      "inputs": [],
      "name": "createNtf",
      "outputs": [],
      "stateMutability": "nonpayable",
      "type": "function"
    },
    {
      "inputs": [],
      "name": "getPlayers",
      "outputs": [
        {
          "components": [
            {
              "internalType": "uint256",
              "name": "id",
              "type": "uint256"
            },
            {
              "internalType": "address",
              "name": "owner",
              "type": "address"
            }
          ],
          "internalType": "struct IGolBall.Player[]",
          "name": "",
          "type": "tuple[]"
        }
      ],
      "stateMutability": "view",
      "type": "function",
      "constant": true
    },
    {
      "inputs": [],
      "name": "addressSmartContract",
      "outputs": [
        {
          "internalType": "address",
          "name": "",
          "type": "address"
        }
      ],
      "stateMutability": "view",
      "type": "function",
      "constant": true
    },
    {
      "inputs": [
        {
          "internalType": "address",
          "name": "_to",
          "type": "address"
        },
        {
          "internalType": "uint256",
          "name": "_idTocken",
          "type": "uint256"
        }
      ],
      "name": "tranferTocken",
      "outputs": [],
      "stateMutability": "nonpayable",
      "type": "function"
    }
  ],
  "bytecode": "0x60806040523480156200001157600080fd5b5060405162001bc238038062001bc28339810160408190526200003491620001c7565b8151829082906200004d9060009060208501906200006e565b508051620000639060019060208401906200006e565b5050505050620002b3565b8280546200007c906200022e565b90600052602060002090601f016020900481019282620000a05760008555620000eb565b82601f10620000bb57805160ff1916838001178555620000eb565b82800160010185558215620000eb579182015b82811115620000eb578251825591602001919060010190620000ce565b50620000f9929150620000fd565b5090565b5b80821115620000f95760008155600101620000fe565b600082601f83011262000125578081fd5b81516001604060020a038082111562000142576200014262000284565b604051601f8301601f19908116603f011681019082821181831017156200016d576200016d62000284565b8160405283815260209250868385880101111562000189578485fd5b8491505b83821015620001ac57858201830151818301840152908201906200018d565b83821115620001bd57848385830101525b9695505050505050565b60008060408385031215620001da578182fd5b82516001604060020a0380821115620001f1578384fd5b620001ff8683870162000114565b9350602085015191508082111562000215578283fd5b50620002248582860162000114565b9150509250929050565b6002810460018216806200024357607f821691505b602082108114156200027e577f4e487b7100000000000000000000000000000000000000000000000000000000600052602260045260246000fd5b50919050565b7f4e487b7100000000000000000000000000000000000000000000000000000000600052604160045260246000fd5b6118ff80620002c36000396000f3fe608060405234801561001057600080fd5b5060043610610133576000357c0100000000000000000000000000000000000000000000000000000000900480638b5b9ccc116100bf578063c2f5168a1161008e578063c2f5168a1461024f578063c87b56dd14610257578063d0e9ef761461026a578063e985e9c51461027d578063f71d96cb1461029057610133565b80638b5b9ccc1461020c57806395d89b4114610221578063a22cb46514610229578063b88d4fde1461023c57610133565b8063095ea7b311610106578063095ea7b3146101a057806323b872dd146101b357806342842e0e146101c65780636352211e146101d957806370a08231146101ec57610133565b806301ffc9a71461013857806306fdde031461016157806307f50a7d14610176578063081812fc14610180575b600080fd5b61014b610146366004611239565b6102b1565b604051610158919061138c565b60405180910390f35b61016961032b565b6040516101589190611397565b61017e6103bd565b005b61019361018e366004611271565b6104b6565b60405161015891906112e4565b61017e6101ae366004611210565b6104dd565b61017e6101c13660046110c6565b610584565b61017e6101d43660046110c6565b6105bf565b6101936101e7366004611271565b6105da565b6101ff6101fa36600461107a565b610612565b604051610158919061176c565b610214610659565b6040516101589190611334565b6101696106ce565b61017e6102373660046111d6565b6106dd565b61017e61024a366004611101565b6106f3565b610193610735565b610169610265366004611271565b610739565b61017e610278366004611210565b6107a0565b61014b61028b366004611094565b610845565b6102a361029e366004611271565b610873565b604051610158929190611775565b6000600160e060020a031982167f80ac58cd0000000000000000000000000000000000000000000000000000000014806103145750600160e060020a031982167f5b5e139f00000000000000000000000000000000000000000000000000000000145b806103235750610323826108aa565b90505b919050565b60606000805461033a906117fb565b80601f0160208091040260200160405190810160405280929190818152602001828054610366906117fb565b80156103b35780601f10610388576101008083540402835291602001916103b3565b820191906000526020600020905b81548152906001019060200180831161039657829003601f168201915b5050505050905090565b60006103c960066108dc565b604080518082019091528181523360208201819052919250906103ec90836108e0565b6007805460018101825560009190915281517fa66cc928b5edb82af9bd49922954155ab7b0942694bea4ce44661d9a8736c68860029092029182015560208201517fa66cc928b5edb82af9bd49922954155ab7b0942694bea4ce44661d9a8736c689909101805473ffffffffffffffffffffffffffffffffffffffff1916600160a060020a0390921691909117905561048560066108fa565b604051829033907f6b8fe0f067804a78a12efa88b8428446c8d8a703d5604dffc63ac27fcbdcfd0d90600090a35050565b60006104c182610903565b50600090815260046020526040902054600160a060020a031690565b60006104e8826105da565b905080600160a060020a031683600160a060020a031614156105285760405160e560020a62461bcd02815260040161051f906116b2565b60405180910390fd5b80600160a060020a031661053a61092e565b600160a060020a0316148061055657506105568161028b61092e565b6105755760405160e560020a62461bcd02815260040161051f906115e9565b61057f8383610932565b505050565b61059561058f61092e565b826109ad565b6105b45760405160e560020a62461bcd02815260040161051f9061170f565b61057f838383610a0c565b61057f838383604051806020016040528060008152506106f3565b600081815260026020526040812054600160a060020a0316806103235760405160e560020a62461bcd02815260040161051f9061167b565b6000600160a060020a03821661063d5760405160e560020a62461bcd02815260040161051f9061158c565b50600160a060020a031660009081526003602052604090205490565b60606007805480602002602001604051908101604052809291908181526020016000905b828210156106c5576000848152602090819020604080518082019091526002850290910180548252600190810154600160a060020a031682840152908352909201910161067d565b50505050905090565b60606001805461033a906117fb565b6106ef6106e861092e565b8383610b52565b5050565b6107046106fe61092e565b836109ad565b6107235760405160e560020a62461bcd02815260040161051f9061170f565b61072f84848484610bf8565b50505050565b3090565b606061074482610903565b600061074e610c2e565b9050600081511161076e5760405180602001604052806000815250610799565b8061077884610c40565b6040516020016107899291906112b5565b6040516020818303038152906040525b9392505050565b6107a9816105da565b600160a060020a031633600160a060020a0316146107dc5760405160e560020a62461bcd02815260040161051f9061152f565b6107e7338383610584565b816007828154811061080c5760e060020a634e487b7102600052603260045260246000fd5b906000526020600020906002020160010160006101000a815481600160a060020a030219169083600160a060020a031602179055505050565b600160a060020a03918216600090815260056020908152604080832093909416825291909152205460ff1690565b6007818154811061088357600080fd5b600091825260209091206002909102018054600190910154909150600160a060020a031682565b600160e060020a031981167f01ffc9a70000000000000000000000000000000000000000000000000000000014919050565b5490565b6106ef828260405180602001604052806000815250610db4565b80546001019055565b61090c81610dea565b61092b5760405160e560020a62461bcd02815260040161051f9061167b565b50565b3390565b6000818152600460205260409020805473ffffffffffffffffffffffffffffffffffffffff1916600160a060020a0384169081179091558190610974826105da565b600160a060020a03167f8c5be1e5ebec7d5bd14f71427d1e84f3dd0314c0f7b2291e5b200ac8c7c3b92560405160405180910390a45050565b6000806109b9836105da565b905080600160a060020a031684600160a060020a031614806109e057506109e08185610845565b80610a04575083600160a060020a03166109f9846104b6565b600160a060020a0316145b949350505050565b82600160a060020a0316610a1f826105da565b600160a060020a031614610a485760405160e560020a62461bcd02815260040161051f90611407565b600160a060020a038216610a715760405160e560020a62461bcd02815260040161051f9061149b565b610a7c83838361057f565b610a87600082610932565b600160a060020a0383166000908152600360205260408120805460019290610ab09084906117b8565b9091555050600160a060020a0382166000908152600360205260408120805460019290610ade90849061178c565b9091555050600081815260026020526040808220805473ffffffffffffffffffffffffffffffffffffffff1916600160a060020a0386811691821790925591518493918716917fddf252ad1be2c89b69c2b068fc378daa952ba7f163c4a11628f55a4df523b3ef91a461057f83838361057f565b81600160a060020a031683600160a060020a03161415610b875760405160e560020a62461bcd02815260040161051f906114f8565b600160a060020a0383811660008181526005602090815260408083209487168084529490915290819020805460ff1916851515179055517f17307eab39ab6107e8899845ad3d59bd9653f200f220920489ca2b5937696c3190610beb90859061138c565b60405180910390a3505050565b610c03848484610a0c565b610c0f84848484610e07565b61072f5760405160e560020a62461bcd02815260040161051f906113aa565b60408051602081019091526000815290565b606081610c81575060408051808201909152600181527f30000000000000000000000000000000000000000000000000000000000000006020820152610326565b8160005b8115610cab5780610c9581611839565b9150610ca49050600a836117a4565b9150610c85565b60008167ffffffffffffffff811115610cd75760e060020a634e487b7102600052604160045260246000fd5b6040519080825280601f01601f191660200182016040528015610d01576020820181803683370190505b5090505b8415610a0457610d166001836117b8565b9150610d23600a86611854565b610d2e90603061178c565b7f010000000000000000000000000000000000000000000000000000000000000002818381518110610d735760e060020a634e487b7102600052603260045260246000fd5b60200101907effffffffffffffffffffffffffffffffffffffffffffffffffffffffffffff1916908160001a905350610dad600a866117a4565b9450610d05565b610dbe8383610f5a565b610dcb6000848484610e07565b61057f5760405160e560020a62461bcd02815260040161051f906113aa565b600090815260026020526040902054600160a060020a0316151590565b6000610e1b84600160a060020a0316611054565b15610f4f5783600160a060020a031663150b7a02610e3761092e565b8786866040518563ffffffff167c0100000000000000000000000000000000000000000000000000000000028152600401610e7594939291906112f8565b602060405180830381600087803b158015610e8f57600080fd5b505af1925050508015610ebf575060408051601f3d908101601f19168201909252610ebc91810190611255565b60015b610f1c573d808015610eed576040519150601f19603f3d011682016040523d82523d6000602084013e610ef2565b606091505b508051610f145760405160e560020a62461bcd02815260040161051f906113aa565b805181602001fd5b600160e060020a0319167f150b7a0200000000000000000000000000000000000000000000000000000000149050610a04565b506001949350505050565b600160a060020a038216610f835760405160e560020a62461bcd02815260040161051f90611646565b610f8c81610dea565b15610fac5760405160e560020a62461bcd02815260040161051f90611464565b610fb86000838361057f565b600160a060020a0382166000908152600360205260408120805460019290610fe190849061178c565b9091555050600081815260026020526040808220805473ffffffffffffffffffffffffffffffffffffffff1916600160a060020a03861690811790915590518392907fddf252ad1be2c89b69c2b068fc378daa952ba7f163c4a11628f55a4df523b3ef908290a46106ef6000838361057f565b600160a060020a03163b151590565b8035600160a060020a038116811461032657600080fd5b60006020828403121561108b578081fd5b61079982611063565b600080604083850312156110a6578081fd5b6110af83611063565b91506110bd60208401611063565b90509250929050565b6000806000606084860312156110da578081fd5b6110e384611063565b92506110f160208501611063565b9150604084013590509250925092565b60008060008060808587031215611116578081fd5b61111f85611063565b935061112d60208601611063565b925060408501359150606085013567ffffffffffffffff80821115611150578283fd5b818701915087601f830112611163578283fd5b8135818111156111755761117561189a565b604051601f8201601f19908116603f0116810190838211818310171561119d5761119d61189a565b816040528281528a60208487010111156111b5578586fd5b82602086016020830137918201602001949094529598949750929550505050565b600080604083850312156111e8578182fd5b6111f183611063565b915060208301358015158114611205578182fd5b809150509250929050565b60008060408385031215611222578182fd5b61122b83611063565b946020939093013593505050565b60006020828403121561124a578081fd5b8135610799816118b3565b600060208284031215611266578081fd5b8151610799816118b3565b600060208284031215611282578081fd5b5035919050565b600081518084526112a18160208601602086016117cf565b601f01601f19169290920160200192915050565b600083516112c78184602088016117cf565b8351908301906112db8183602088016117cf565b01949350505050565b600160a060020a0391909116815260200190565b6000600160a060020a0380871683528086166020840152508360408301526080606083015261132a6080830184611289565b9695505050505050565b602080825282518282018190526000919060409081850190868401855b8281101561137f57815180518552860151600160a060020a0316868501529284019290850190600101611351565b5091979650505050505050565b901515815260200190565b6000602082526107996020830184611289565b60208082526032908201527f4552433732313a207472616e7366657220746f206e6f6e20455243373231526560408201527f63656976657220696d706c656d656e7465720000000000000000000000000000606082015260800190565b60208082526025908201527f4552433732313a207472616e736665722066726f6d20696e636f72726563742060408201527f6f776e6572000000000000000000000000000000000000000000000000000000606082015260800190565b6020808252601c908201527f4552433732313a20746f6b656e20616c7265616479206d696e74656400000000604082015260600190565b60208082526024908201527f4552433732313a207472616e7366657220746f20746865207a65726f2061646460408201527f7265737300000000000000000000000000000000000000000000000000000000606082015260800190565b60208082526019908201527f4552433732313a20617070726f766520746f2063616c6c657200000000000000604082015260600190565b60208082526031908201527f596f7520646f206e6f742068617665207065726d697373696f6e7320746f207260408201527f756e2074686973206f7065726174696f6e000000000000000000000000000000606082015260800190565b60208082526029908201527f4552433732313a2061646472657373207a65726f206973206e6f74206120766160408201527f6c6964206f776e65720000000000000000000000000000000000000000000000606082015260800190565b6020808252603e908201527f4552433732313a20617070726f76652063616c6c6572206973206e6f7420746f60408201527f6b656e206f776e6572206e6f7220617070726f76656420666f7220616c6c0000606082015260800190565b6020808252818101527f4552433732313a206d696e7420746f20746865207a65726f2061646472657373604082015260600190565b60208082526018908201527f4552433732313a20696e76616c696420746f6b656e2049440000000000000000604082015260600190565b60208082526021908201527f4552433732313a20617070726f76616c20746f2063757272656e74206f776e6560408201527f7200000000000000000000000000000000000000000000000000000000000000606082015260800190565b6020808252602e908201527f4552433732313a2063616c6c6572206973206e6f7420746f6b656e206f776e6560408201527f72206e6f7220617070726f766564000000000000000000000000000000000000606082015260800190565b90815260200190565b918252600160a060020a0316602082015260400190565b6000821982111561179f5761179f611868565b500190565b6000826117b3576117b3611881565b500490565b6000828210156117ca576117ca611868565b500390565b60005b838110156117ea5781810151838201526020016117d2565b8381111561072f5750506000910152565b60028104600182168061180f57607f821691505b602082108114156118335760e060020a634e487b7102600052602260045260246000fd5b50919050565b600060001982141561184d5761184d611868565b5060010190565b60008261186357611863611881565b500690565b60e060020a634e487b7102600052601160045260246000fd5b60e060020a634e487b7102600052601260045260246000fd5b60e060020a634e487b7102600052604160045260246000fd5b600160e060020a03198116811461092b57600080fdfea264697066735822122096389d2e4943aee09244855448ce030a58df0ea12ce2b0b4d1a71c7f4a5e5d7364736f6c63430008010033",
  "immutableReferences": {},
  "source": "// SPDX-License-Identifier: MIT\npragma solidity ^0.8.0;\n\nimport \"@openzeppelin/contracts/token/ERC721/ERC721.sol\";\nimport \"@openzeppelin/contracts/utils/Counters.sol\";\nimport \"./IGolBall.sol\";\n\n// Creacin del Smart Contract para el Videojuego NFT\ncontract GolBall is ERC721, IGolBall {\n\n    using Counters for Counters.Counter;\n\n    // Constructor de mi Smart Contract\n    constructor (string memory _name, string memory _symbol)\n    ERC721(_name, _symbol) {}\n\n    // Contador de tokens NFT\n    Counters.Counter private _idCounter;\n\n    // Estructura de almacenamiento\n    Player [] public players;\n    \n    // Funciones \n\n    // Creacin del Token NFT\n    function createNtf() public override{\n        uint256 current = _idCounter.current();\n        Player memory newPlayer = Player(current, msg.sender);\n        _safeMint(msg.sender, current);\n        players.push(newPlayer);\n        _idCounter.increment();\n        emit NewPlayer(msg.sender, current);\n    }\n\n    // Obtencin de todos los jugadores\n    function getPlayers() public view override returns (Player [] memory) {\n        return players;\n    }\n\n    // Visualizar la direccin del Smart Contract\n    function addressSmartContract() public view override returns (address) {\n        return address(this);\n    }\n\n    // Tranferir tocken\n    function tranferTocken ( address _to, uint _idTocken) public override {\n        require (msg.sender == ownerOf(_idTocken), \"You do not have permissions to run this operation\");\n        transferFrom(msg.sender, _to, _idTocken);\n        players[_idTocken].owner = _to;\n    } \n\n}",
  "sourcePath": "/home/xdx/Escritorio/Mis proyectos/Solidity proyects/mio/gol_ball/contracts/GolBall.sol",
  "compiler": {
    "name": "solc",
    "version": "0.8.1+commit.df193b15.Emscripten.clang"
  },
  "schemaVersion": "3.4.7",
  "updatedAt": "2022-10-02T11:49:02.179Z",
  "networkType": "ethereum",
  "devdoc": {
    "kind": "dev",
    "methods": {
      "approve(address,uint256)": {
        "details": "See {IERC721-approve}."
      },
      "balanceOf(address)": {
        "details": "See {IERC721-balanceOf}."
      },
      "getApproved(uint256)": {
        "details": "See {IERC721-getApproved}."
      },
      "isApprovedForAll(address,address)": {
        "details": "See {IERC721-isApprovedForAll}."
      },
      "name()": {
        "details": "See {IERC721Metadata-name}."
      },
      "ownerOf(uint256)": {
        "details": "See {IERC721-ownerOf}."
      },
      "safeTransferFrom(address,address,uint256)": {
        "details": "See {IERC721-safeTransferFrom}."
      },
      "safeTransferFrom(address,address,uint256,bytes)": {
        "details": "See {IERC721-safeTransferFrom}."
      },
      "setApprovalForAll(address,bool)": {
        "details": "See {IERC721-setApprovalForAll}."
      },
      "supportsInterface(bytes4)": {
        "details": "See {IERC165-supportsInterface}."
      },
      "symbol()": {
        "details": "See {IERC721Metadata-symbol}."
      },
      "tokenURI(uint256)": {
        "details": "See {IERC721Metadata-tokenURI}."
      },
      "transferFrom(address,address,uint256)": {
        "details": "See {IERC721-transferFrom}."
      }
    },
    "version": 1
  },
  "userdoc": {
    "kind": "user",
    "methods": {},
    "version": 1
  }
}