{
  "contractName": "GolBall",
  "abi": [
    {
      "inputs": [
        {
          "internalType": "string",
          "name": "_name",
          "type": "string"
        },
        {
          "internalType": "string",
          "name": "_symbol",
          "type": "string"
        }
      ],
      "stateMutability": "nonpayable",
      "type": "constructor"
    },
    {
      "anonymous": false,
      "inputs": [
        {
          "indexed": true,
          "internalType": "address",
          "name": "owner",
          "type": "address"
        },
        {
          "indexed": true,
          "internalType": "address",
          "name": "approved",
          "type": "address"
        },
        {
          "indexed": true,
          "internalType": "uint256",
          "name": "tokenId",
          "type": "uint256"
        }
      ],
      "name": "Approval",
      "type": "event"
    },
    {
      "anonymous": false,
      "inputs": [
        {
          "indexed": true,
          "internalType": "address",
          "name": "owner",
          "type": "address"
        },
        {
          "indexed": true,
          "internalType": "address",
          "name": "operator",
          "type": "address"
        },
        {
          "indexed": false,
          "internalType": "bool",
          "name": "approved",
          "type": "bool"
        }
      ],
      "name": "ApprovalForAll",
      "type": "event"
    },
    {
      "anonymous": false,
      "inputs": [
        {
          "indexed": true,
          "internalType": "address",
          "name": "owner",
          "type": "address"
        },
        {
          "indexed": true,
          "internalType": "uint256",
          "name": "tokenId",
          "type": "uint256"
        }
      ],
      "name": "NewPlayer",
      "type": "event"
    },
    {
      "anonymous": false,
      "inputs": [
        {
          "indexed": true,
          "internalType": "address",
          "name": "from",
          "type": "address"
        },
        {
          "indexed": true,
          "internalType": "address",
          "name": "to",
          "type": "address"
        },
        {
          "indexed": true,
          "internalType": "uint256",
          "name": "tokenId",
          "type": "uint256"
        }
      ],
      "name": "Transfer",
      "type": "event"
    },
    {
      "inputs": [
        {
          "internalType": "address",
          "name": "to",
          "type": "address"
        },
        {
          "internalType": "uint256",
          "name": "tokenId",
          "type": "uint256"
        }
      ],
      "name": "approve",
      "outputs": [],
      "stateMutability": "nonpayable",
      "type": "function"
    },
    {
      "inputs": [
        {
          "internalType": "address",
          "name": "owner",
          "type": "address"
        }
      ],
      "name": "balanceOf",
      "outputs": [
        {
          "internalType": "uint256",
          "name": "",
          "type": "uint256"
        }
      ],
      "stateMutability": "view",
      "type": "function",
      "constant": true
    },
    {
      "inputs": [
        {
          "internalType": "uint256",
          "name": "tokenId",
          "type": "uint256"
        }
      ],
      "name": "getApproved",
      "outputs": [
        {
          "internalType": "address",
          "name": "",
          "type": "address"
        }
      ],
      "stateMutability": "view",
      "type": "function",
      "constant": true
    },
    {
      "inputs": [
        {
          "internalType": "address",
          "name": "owner",
          "type": "address"
        },
        {
          "internalType": "address",
          "name": "operator",
          "type": "address"
        }
      ],
      "name": "isApprovedForAll",
      "outputs": [
        {
          "internalType": "bool",
          "name": "",
          "type": "bool"
        }
      ],
      "stateMutability": "view",
      "type": "function",
      "constant": true
    },
    {
      "inputs": [],
      "name": "name",
      "outputs": [
        {
          "internalType": "string",
          "name": "",
          "type": "string"
        }
      ],
      "stateMutability": "view",
      "type": "function",
      "constant": true
    },
    {
      "inputs": [
        {
          "internalType": "uint256",
          "name": "tokenId",
          "type": "uint256"
        }
      ],
      "name": "ownerOf",
      "outputs": [
        {
          "internalType": "address",
          "name": "",
          "type": "address"
        }
      ],
      "stateMutability": "view",
      "type": "function",
      "constant": true
    },
    {
      "inputs": [
        {
          "internalType": "uint256",
          "name": "",
          "type": "uint256"
        }
      ],
      "name": "players",
      "outputs": [
        {
          "internalType": "uint256",
          "name": "id",
          "type": "uint256"
        },
        {
          "internalType": "address",
          "name": "owner",
          "type": "address"
        }
      ],
      "stateMutability": "view",
      "type": "function",
      "constant": true
    },
    {
      "inputs": [
        {
          "internalType": "address",
          "name": "from",
          "type": "address"
        },
        {
          "internalType": "address",
          "name": "to",
          "type": "address"
        },
        {
          "internalType": "uint256",
          "name": "tokenId",
          "type": "uint256"
        }
      ],
      "name": "safeTransferFrom",
      "outputs": [],
      "stateMutability": "nonpayable",
      "type": "function"
    },
    {
      "inputs": [
        {
          "internalType": "address",
          "name": "from",
          "type": "address"
        },
        {
          "internalType": "address",
          "name": "to",
          "type": "address"
        },
        {
          "internalType": "uint256",
          "name": "tokenId",
          "type": "uint256"
        },
        {
          "internalType": "bytes",
          "name": "data",
          "type": "bytes"
        }
      ],
      "name": "safeTransferFrom",
      "outputs": [],
      "stateMutability": "nonpayable",
      "type": "function"
    },
    {
      "inputs": [
        {
          "internalType": "address",
          "name": "operator",
          "type": "address"
        },
        {
          "internalType": "bool",
          "name": "approved",
          "type": "bool"
        }
      ],
      "name": "setApprovalForAll",
      "outputs": [],
      "stateMutability": "nonpayable",
      "type": "function"
    },
    {
      "inputs": [
        {
          "internalType": "bytes4",
          "name": "interfaceId",
          "type": "bytes4"
        }
      ],
      "name": "supportsInterface",
      "outputs": [
        {
          "internalType": "bool",
          "name": "",
          "type": "bool"
        }
      ],
      "stateMutability": "view",
      "type": "function",
      "constant": true
    },
    {
      "inputs": [],
      "name": "symbol",
      "outputs": [
        {
          "internalType": "string",
          "name": "",
          "type": "string"
        }
      ],
      "stateMutability": "view",
      "type": "function",
      "constant": true
    },
    {
      "inputs": [
        {
          "internalType": "uint256",
          "name": "tokenId",
          "type": "uint256"
        }
      ],
      "name": "tokenURI",
      "outputs": [
        {
          "internalType": "string",
          "name": "",
          "type": "string"
        }
      ],
      "stateMutability": "view",
      "type": "function",
      "constant": true
    },
    {
      "inputs": [
        {
          "internalType": "address",
          "name": "from",
          "type": "address"
        },
        {
          "internalType": "address",
          "name": "to",
          "type": "address"
        },
        {
          "internalType": "uint256",
          "name": "tokenId",
          "type": "uint256"
        }
      ],
      "name": "transferFrom",
      "outputs": [],
      "stateMutability": "nonpayable",
      "type": "function"
    },
    {
      "inputs": [],
      "name": "createNtf",
      "outputs": [],
      "stateMutability": "nonpayable",
      "type": "function"
    },
    {
      "inputs": [],
      "name": "getPlayers",
      "outputs": [
        {
          "components": [
            {
              "internalType": "uint256",
              "name": "id",
              "type": "uint256"
            },
            {
              "internalType": "address",
              "name": "owner",
              "type": "address"
            }
          ],
          "internalType": "struct IGolBall.Player[]",
          "name": "",
          "type": "tuple[]"
        }
      ],
      "stateMutability": "view",
      "type": "function",
      "constant": true
    },
    {
      "inputs": [],
      "name": "addressSmartContract",
      "outputs": [
        {
          "internalType": "address",
          "name": "",
          "type": "address"
        }
      ],
      "stateMutability": "view",
      "type": "function",
      "constant": true
    }
  ],
  "bytecode": "0x60806040523480156200001157600080fd5b5060405162001aa238038062001aa28339810160408190526200003491620001c7565b8151829082906200004d9060009060208501906200006e565b508051620000639060019060208401906200006e565b5050505050620002b3565b8280546200007c906200022e565b90600052602060002090601f016020900481019282620000a05760008555620000eb565b82601f10620000bb57805160ff1916838001178555620000eb565b82800160010185558215620000eb579182015b82811115620000eb578251825591602001919060010190620000ce565b50620000f9929150620000fd565b5090565b5b80821115620000f95760008155600101620000fe565b600082601f83011262000125578081fd5b81516001604060020a038082111562000142576200014262000284565b604051601f8301601f19908116603f011681019082821181831017156200016d576200016d62000284565b8160405283815260209250868385880101111562000189578485fd5b8491505b83821015620001ac57858201830151818301840152908201906200018d565b83821115620001bd57848385830101525b9695505050505050565b60008060408385031215620001da578182fd5b82516001604060020a0380821115620001f1578384fd5b620001ff8683870162000114565b9350602085015191508082111562000215578283fd5b50620002248582860162000114565b9150509250929050565b6002810460018216806200024357607f821691505b602082108114156200027e577f4e487b7100000000000000000000000000000000000000000000000000000000600052602260045260246000fd5b50919050565b7f4e487b7100000000000000000000000000000000000000000000000000000000600052604160045260246000fd5b6117df80620002c36000396000f3fe608060405234801561001057600080fd5b5060043610610128576000357c01000000000000000000000000000000000000000000000000000000009004806370a08231116100bf578063b88d4fde1161008e578063b88d4fde14610231578063c2f5168a14610244578063c87b56dd1461024c578063e985e9c51461025f578063f71d96cb1461027257610128565b806370a08231146101e15780638b5b9ccc1461020157806395d89b4114610216578063a22cb4651461021e57610128565b8063095ea7b3116100fb578063095ea7b31461019557806323b872dd146101a857806342842e0e146101bb5780636352211e146101ce57610128565b806301ffc9a71461012d57806306fdde031461015657806307f50a7d1461016b578063081812fc14610175575b600080fd5b61014061013b366004611176565b610293565b60405161014d91906112c9565b60405180910390f35b61015e61030d565b60405161014d91906112d4565b61017361039f565b005b6101886101833660046111ae565b610498565b60405161014d9190611221565b6101736101a336600461114d565b6104bf565b6101736101b6366004611003565b610566565b6101736101c9366004611003565b6105a1565b6101886101dc3660046111ae565b6105bc565b6101f46101ef366004610fb7565b6105f4565b60405161014d919061164c565b61020961063b565b60405161014d9190611271565b61015e6106b0565b61017361022c366004611113565b6106bf565b61017361023f36600461103e565b6106d5565b610188610717565b61015e61025a3660046111ae565b61071b565b61014061026d366004610fd1565b610782565b6102856102803660046111ae565b6107b0565b60405161014d929190611655565b6000600160e060020a031982167f80ac58cd0000000000000000000000000000000000000000000000000000000014806102f65750600160e060020a031982167f5b5e139f00000000000000000000000000000000000000000000000000000000145b806103055750610305826107e7565b90505b919050565b60606000805461031c906116db565b80601f0160208091040260200160405190810160405280929190818152602001828054610348906116db565b80156103955780601f1061036a57610100808354040283529160200191610395565b820191906000526020600020905b81548152906001019060200180831161037857829003601f168201915b5050505050905090565b60006103ab6006610819565b604080518082019091528181523360208201819052919250906103ce908361081d565b6007805460018101825560009190915281517fa66cc928b5edb82af9bd49922954155ab7b0942694bea4ce44661d9a8736c68860029092029182015560208201517fa66cc928b5edb82af9bd49922954155ab7b0942694bea4ce44661d9a8736c689909101805473ffffffffffffffffffffffffffffffffffffffff1916600160a060020a039092169190911790556104676006610837565b604051829033907f6b8fe0f067804a78a12efa88b8428446c8d8a703d5604dffc63ac27fcbdcfd0d90600090a35050565b60006104a382610840565b50600090815260046020526040902054600160a060020a031690565b60006104ca826105bc565b905080600160a060020a031683600160a060020a0316141561050a5760405160e560020a62461bcd02815260040161050190611592565b60405180910390fd5b80600160a060020a031661051c61086b565b600160a060020a0316148061053857506105388161026d61086b565b6105575760405160e560020a62461bcd028152600401610501906114c9565b610561838361086f565b505050565b61057761057161086b565b826108ea565b6105965760405160e560020a62461bcd028152600401610501906115ef565b610561838383610949565b610561838383604051806020016040528060008152506106d5565b600081815260026020526040812054600160a060020a0316806103055760405160e560020a62461bcd0281526004016105019061155b565b6000600160a060020a03821661061f5760405160e560020a62461bcd0281526004016105019061146c565b50600160a060020a031660009081526003602052604090205490565b60606007805480602002602001604051908101604052809291908181526020016000905b828210156106a7576000848152602090819020604080518082019091526002850290910180548252600190810154600160a060020a031682840152908352909201910161065f565b50505050905090565b60606001805461031c906116db565b6106d16106ca61086b565b8383610a8f565b5050565b6106e66106e061086b565b836108ea565b6107055760405160e560020a62461bcd028152600401610501906115ef565b61071184848484610b35565b50505050565b3090565b606061072682610840565b6000610730610b6b565b90506000815111610750576040518060200160405280600081525061077b565b8061075a84610b7d565b60405160200161076b9291906111f2565b6040516020818303038152906040525b9392505050565b600160a060020a03918216600090815260056020908152604080832093909416825291909152205460ff1690565b600781815481106107c057600080fd5b600091825260209091206002909102018054600190910154909150600160a060020a031682565b600160e060020a031981167f01ffc9a70000000000000000000000000000000000000000000000000000000014919050565b5490565b6106d1828260405180602001604052806000815250610cf1565b80546001019055565b61084981610d27565b6108685760405160e560020a62461bcd0281526004016105019061155b565b50565b3390565b6000818152600460205260409020805473ffffffffffffffffffffffffffffffffffffffff1916600160a060020a03841690811790915581906108b1826105bc565b600160a060020a03167f8c5be1e5ebec7d5bd14f71427d1e84f3dd0314c0f7b2291e5b200ac8c7c3b92560405160405180910390a45050565b6000806108f6836105bc565b905080600160a060020a031684600160a060020a0316148061091d575061091d8185610782565b80610941575083600160a060020a031661093684610498565b600160a060020a0316145b949350505050565b82600160a060020a031661095c826105bc565b600160a060020a0316146109855760405160e560020a62461bcd02815260040161050190611344565b600160a060020a0382166109ae5760405160e560020a62461bcd028152600401610501906113d8565b6109b9838383610561565b6109c460008261086f565b600160a060020a03831660009081526003602052604081208054600192906109ed908490611698565b9091555050600160a060020a0382166000908152600360205260408120805460019290610a1b90849061166c565b9091555050600081815260026020526040808220805473ffffffffffffffffffffffffffffffffffffffff1916600160a060020a0386811691821790925591518493918716917fddf252ad1be2c89b69c2b068fc378daa952ba7f163c4a11628f55a4df523b3ef91a4610561838383610561565b81600160a060020a031683600160a060020a03161415610ac45760405160e560020a62461bcd02815260040161050190611435565b600160a060020a0383811660008181526005602090815260408083209487168084529490915290819020805460ff1916851515179055517f17307eab39ab6107e8899845ad3d59bd9653f200f220920489ca2b5937696c3190610b289085906112c9565b60405180910390a3505050565b610b40848484610949565b610b4c84848484610d44565b6107115760405160e560020a62461bcd028152600401610501906112e7565b60408051602081019091526000815290565b606081610bbe575060408051808201909152600181527f30000000000000000000000000000000000000000000000000000000000000006020820152610308565b8160005b8115610be85780610bd281611719565b9150610be19050600a83611684565b9150610bc2565b60008167ffffffffffffffff811115610c145760e060020a634e487b7102600052604160045260246000fd5b6040519080825280601f01601f191660200182016040528015610c3e576020820181803683370190505b5090505b841561094157610c53600183611698565b9150610c60600a86611734565b610c6b90603061166c565b7f010000000000000000000000000000000000000000000000000000000000000002818381518110610cb05760e060020a634e487b7102600052603260045260246000fd5b60200101907effffffffffffffffffffffffffffffffffffffffffffffffffffffffffffff1916908160001a905350610cea600a86611684565b9450610c42565b610cfb8383610e97565b610d086000848484610d44565b6105615760405160e560020a62461bcd028152600401610501906112e7565b600090815260026020526040902054600160a060020a0316151590565b6000610d5884600160a060020a0316610f91565b15610e8c5783600160a060020a031663150b7a02610d7461086b565b8786866040518563ffffffff167c0100000000000000000000000000000000000000000000000000000000028152600401610db29493929190611235565b602060405180830381600087803b158015610dcc57600080fd5b505af1925050508015610dfc575060408051601f3d908101601f19168201909252610df991810190611192565b60015b610e59573d808015610e2a576040519150601f19603f3d011682016040523d82523d6000602084013e610e2f565b606091505b508051610e515760405160e560020a62461bcd028152600401610501906112e7565b805181602001fd5b600160e060020a0319167f150b7a0200000000000000000000000000000000000000000000000000000000149050610941565b506001949350505050565b600160a060020a038216610ec05760405160e560020a62461bcd02815260040161050190611526565b610ec981610d27565b15610ee95760405160e560020a62461bcd028152600401610501906113a1565b610ef560008383610561565b600160a060020a0382166000908152600360205260408120805460019290610f1e90849061166c565b9091555050600081815260026020526040808220805473ffffffffffffffffffffffffffffffffffffffff1916600160a060020a03861690811790915590518392907fddf252ad1be2c89b69c2b068fc378daa952ba7f163c4a11628f55a4df523b3ef908290a46106d160008383610561565b600160a060020a03163b151590565b8035600160a060020a038116811461030857600080fd5b600060208284031215610fc8578081fd5b61077b82610fa0565b60008060408385031215610fe3578081fd5b610fec83610fa0565b9150610ffa60208401610fa0565b90509250929050565b600080600060608486031215611017578081fd5b61102084610fa0565b925061102e60208501610fa0565b9150604084013590509250925092565b60008060008060808587031215611053578081fd5b61105c85610fa0565b935061106a60208601610fa0565b925060408501359150606085013567ffffffffffffffff8082111561108d578283fd5b818701915087601f8301126110a0578283fd5b8135818111156110b2576110b261177a565b604051601f8201601f19908116603f011681019083821181831017156110da576110da61177a565b816040528281528a60208487010111156110f2578586fd5b82602086016020830137918201602001949094529598949750929550505050565b60008060408385031215611125578182fd5b61112e83610fa0565b915060208301358015158114611142578182fd5b809150509250929050565b6000806040838503121561115f578182fd5b61116883610fa0565b946020939093013593505050565b600060208284031215611187578081fd5b813561077b81611793565b6000602082840312156111a3578081fd5b815161077b81611793565b6000602082840312156111bf578081fd5b5035919050565b600081518084526111de8160208601602086016116af565b601f01601f19169290920160200192915050565b600083516112048184602088016116af565b8351908301906112188183602088016116af565b01949350505050565b600160a060020a0391909116815260200190565b6000600160a060020a0380871683528086166020840152508360408301526080606083015261126760808301846111c6565b9695505050505050565b602080825282518282018190526000919060409081850190868401855b828110156112bc57815180518552860151600160a060020a031686850152928401929085019060010161128e565b5091979650505050505050565b901515815260200190565b60006020825261077b60208301846111c6565b60208082526032908201527f4552433732313a207472616e7366657220746f206e6f6e20455243373231526560408201527f63656976657220696d706c656d656e7465720000000000000000000000000000606082015260800190565b60208082526025908201527f4552433732313a207472616e736665722066726f6d20696e636f72726563742060408201527f6f776e6572000000000000000000000000000000000000000000000000000000606082015260800190565b6020808252601c908201527f4552433732313a20746f6b656e20616c7265616479206d696e74656400000000604082015260600190565b60208082526024908201527f4552433732313a207472616e7366657220746f20746865207a65726f2061646460408201527f7265737300000000000000000000000000000000000000000000000000000000606082015260800190565b60208082526019908201527f4552433732313a20617070726f766520746f2063616c6c657200000000000000604082015260600190565b60208082526029908201527f4552433732313a2061646472657373207a65726f206973206e6f74206120766160408201527f6c6964206f776e65720000000000000000000000000000000000000000000000606082015260800190565b6020808252603e908201527f4552433732313a20617070726f76652063616c6c6572206973206e6f7420746f60408201527f6b656e206f776e6572206e6f7220617070726f76656420666f7220616c6c0000606082015260800190565b6020808252818101527f4552433732313a206d696e7420746f20746865207a65726f2061646472657373604082015260600190565b60208082526018908201527f4552433732313a20696e76616c696420746f6b656e2049440000000000000000604082015260600190565b60208082526021908201527f4552433732313a20617070726f76616c20746f2063757272656e74206f776e6560408201527f7200000000000000000000000000000000000000000000000000000000000000606082015260800190565b6020808252602e908201527f4552433732313a2063616c6c6572206973206e6f7420746f6b656e206f776e6560408201527f72206e6f7220617070726f766564000000000000000000000000000000000000606082015260800190565b90815260200190565b918252600160a060020a0316602082015260400190565b6000821982111561167f5761167f611748565b500190565b60008261169357611693611761565b500490565b6000828210156116aa576116aa611748565b500390565b60005b838110156116ca5781810151838201526020016116b2565b838111156107115750506000910152565b6002810460018216806116ef57607f821691505b602082108114156117135760e060020a634e487b7102600052602260045260246000fd5b50919050565b600060001982141561172d5761172d611748565b5060010190565b60008261174357611743611761565b500690565b60e060020a634e487b7102600052601160045260246000fd5b60e060020a634e487b7102600052601260045260246000fd5b60e060020a634e487b7102600052604160045260246000fd5b600160e060020a03198116811461086857600080fdfea26469706673582212201ddfdb36a5a43c17cb556c01c9f868237918b861ccc8d59ecd6e6c59694977e164736f6c63430008010033",
  "immutableReferences": {},
  "source": "// SPDX-License-Identifier: MIT\npragma solidity ^0.8.0;\n\nimport \"@openzeppelin/contracts/token/ERC721/ERC721.sol\";\nimport \"@openzeppelin/contracts/utils/Counters.sol\";\nimport \"./IGolBall.sol\";\n\n// Creacin del Smart Contract para el Videojuego NFT\ncontract GolBall is ERC721, IGolBall {\n\n    using Counters for Counters.Counter;\n\n    // Constructor de mi Smart Contract\n    constructor (string memory _name, string memory _symbol)\n    ERC721(_name, _symbol) {}\n\n    // Contador de tokens NFT\n    Counters.Counter private _idCounter;\n\n    // Estructura de almacenamiento\n    Player [] public players;\n    \n    // Funciones \n\n    // Creacin del Token NFT\n    function createNtf() public override{\n        uint256 current = _idCounter.current();\n        Player memory newPlayer = Player(current, msg.sender);\n        _safeMint(msg.sender, current);\n        players.push(newPlayer);\n        _idCounter.increment();\n        emit NewPlayer(msg.sender, current);\n    }\n\n    // Obtencin de todos los jugadores\n    function getPlayers() public view override returns (Player [] memory) {\n        return players;\n    }\n\n    // Visualizar la direccin del Smart Contract\n    function addressSmartContract() public view override returns (address) {\n        return address(this);\n    }\n\n}",
  "sourcePath": "/home/xdx/Escritorio/Mis proyectos/Solidity proyects/mio/gol_ball/contracts/GolBall.sol",
  "compiler": {
    "name": "solc",
    "version": "0.8.1+commit.df193b15.Emscripten.clang"
  },
  "schemaVersion": "3.4.7",
  "updatedAt": "2022-10-02T10:05:50.281Z",
  "networkType": "ethereum",
  "devdoc": {
    "kind": "dev",
    "methods": {
      "approve(address,uint256)": {
        "details": "See {IERC721-approve}."
      },
      "balanceOf(address)": {
        "details": "See {IERC721-balanceOf}."
      },
      "getApproved(uint256)": {
        "details": "See {IERC721-getApproved}."
      },
      "isApprovedForAll(address,address)": {
        "details": "See {IERC721-isApprovedForAll}."
      },
      "name()": {
        "details": "See {IERC721Metadata-name}."
      },
      "ownerOf(uint256)": {
        "details": "See {IERC721-ownerOf}."
      },
      "safeTransferFrom(address,address,uint256)": {
        "details": "See {IERC721-safeTransferFrom}."
      },
      "safeTransferFrom(address,address,uint256,bytes)": {
        "details": "See {IERC721-safeTransferFrom}."
      },
      "setApprovalForAll(address,bool)": {
        "details": "See {IERC721-setApprovalForAll}."
      },
      "supportsInterface(bytes4)": {
        "details": "See {IERC165-supportsInterface}."
      },
      "symbol()": {
        "details": "See {IERC721Metadata-symbol}."
      },
      "tokenURI(uint256)": {
        "details": "See {IERC721Metadata-tokenURI}."
      },
      "transferFrom(address,address,uint256)": {
        "details": "See {IERC721-transferFrom}."
      }
    },
    "version": 1
  },
  "userdoc": {
    "kind": "user",
    "methods": {},
    "version": 1
  }
}